{
    "contractName": "DumplingToken",
    "abi": [
        {
            "anonymous": false,
            "inputs": [
                {
                    "indexed": true,
                    "internalType": "address",
                    "name": "owner",
                    "type": "address"
                },
                {
                    "indexed": true,
                    "internalType": "address",
                    "name": "spender",
                    "type": "address"
                },
                {
                    "indexed": false,
                    "internalType": "uint256",
                    "name": "value",
                    "type": "uint256"
                }
            ],
            "name": "Approval",
            "type": "event"
        },
        {
            "anonymous": false,
            "inputs": [
                {
                    "indexed": true,
                    "internalType": "address",
                    "name": "delegator",
                    "type": "address"
                },
                {
                    "indexed": true,
                    "internalType": "address",
                    "name": "fromDelegate",
                    "type": "address"
                },
                {
                    "indexed": true,
                    "internalType": "address",
                    "name": "toDelegate",
                    "type": "address"
                }
            ],
            "name": "DelegateChanged",
            "type": "event"
        },
        {
            "anonymous": false,
            "inputs": [
                {
                    "indexed": true,
                    "internalType": "address",
                    "name": "delegate",
                    "type": "address"
                },
                {
                    "indexed": false,
                    "internalType": "uint256",
                    "name": "previousBalance",
                    "type": "uint256"
                },
                {
                    "indexed": false,
                    "internalType": "uint256",
                    "name": "newBalance",
                    "type": "uint256"
                }
            ],
            "name": "DelegateVotesChanged",
            "type": "event"
        },
        {
            "anonymous": false,
            "inputs": [
                {
                    "indexed": true,
                    "internalType": "address",
                    "name": "previousOwner",
                    "type": "address"
                },
                {
                    "indexed": true,
                    "internalType": "address",
                    "name": "newOwner",
                    "type": "address"
                }
            ],
            "name": "OwnershipTransferred",
            "type": "event"
        },
        {
            "anonymous": false,
            "inputs": [
                {
                    "indexed": true,
                    "internalType": "address",
                    "name": "from",
                    "type": "address"
                },
                {
                    "indexed": true,
                    "internalType": "address",
                    "name": "to",
                    "type": "address"
                },
                {
                    "indexed": false,
                    "internalType": "uint256",
                    "name": "value",
                    "type": "uint256"
                }
            ],
            "name": "Transfer",
            "type": "event"
        },
        {
            "inputs": [],
            "name": "BURN_ADDRESS",
            "outputs": [
                {
                    "internalType": "address",
                    "name": "",
                    "type": "address"
                }
            ],
            "stateMutability": "view",
            "type": "function"
        },
        {
            "inputs": [],
            "name": "DELEGATION_TYPEHASH",
            "outputs": [
                {
                    "internalType": "bytes32",
                    "name": "",
                    "type": "bytes32"
                }
            ],
            "stateMutability": "view",
            "type": "function"
        },
        {
            "inputs": [],
            "name": "DOMAIN_TYPEHASH",
            "outputs": [
                {
                    "internalType": "bytes32",
                    "name": "",
                    "type": "bytes32"
                }
            ],
            "stateMutability": "view",
            "type": "function"
        },
        {
            "inputs": [
                {
                    "internalType": "address",
                    "name": "owner",
                    "type": "address"
                },
                {
                    "internalType": "address",
                    "name": "spender",
                    "type": "address"
                }
            ],
            "name": "allowance",
            "outputs": [
                {
                    "internalType": "uint256",
                    "name": "",
                    "type": "uint256"
                }
            ],
            "stateMutability": "view",
            "type": "function"
        },
        {
            "inputs": [
                {
                    "internalType": "address",
                    "name": "spender",
                    "type": "address"
                },
                {
                    "internalType": "uint256",
                    "name": "amount",
                    "type": "uint256"
                }
            ],
            "name": "approve",
            "outputs": [
                {
                    "internalType": "bool",
                    "name": "",
                    "type": "bool"
                }
            ],
            "stateMutability": "nonpayable",
            "type": "function"
        },
        {
            "inputs": [
                {
                    "internalType": "address",
                    "name": "account",
                    "type": "address"
                }
            ],
            "name": "balanceOf",
            "outputs": [
                {
                    "internalType": "uint256",
                    "name": "",
                    "type": "uint256"
                }
            ],
            "stateMutability": "view",
            "type": "function"
        },
        {
            "inputs": [
                {
                    "internalType": "address",
                    "name": "",
                    "type": "address"
                },
                {
                    "internalType": "uint32",
                    "name": "",
                    "type": "uint32"
                }
            ],
            "name": "checkpoints",
            "outputs": [
                {
                    "internalType": "uint32",
                    "name": "fromBlock",
                    "type": "uint32"
                },
                {
                    "internalType": "uint256",
                    "name": "votes",
                    "type": "uint256"
                }
            ],
            "stateMutability": "view",
            "type": "function"
        },
        {
            "inputs": [],
            "name": "decimals",
            "outputs": [
                {
                    "internalType": "uint8",
                    "name": "",
                    "type": "uint8"
                }
            ],
            "stateMutability": "view",
            "type": "function"
        },
        {
            "inputs": [
                {
                    "internalType": "address",
                    "name": "spender",
                    "type": "address"
                },
                {
                    "internalType": "uint256",
                    "name": "subtractedValue",
                    "type": "uint256"
                }
            ],
            "name": "decreaseAllowance",
            "outputs": [
                {
                    "internalType": "bool",
                    "name": "",
                    "type": "bool"
                }
            ],
            "stateMutability": "nonpayable",
            "type": "function"
        },
        {
            "inputs": [
                {
                    "internalType": "address",
                    "name": "delegatee",
                    "type": "address"
                }
            ],
            "name": "delegate",
            "outputs": [],
            "stateMutability": "nonpayable",
            "type": "function"
        },
        {
            "inputs": [
                {
                    "internalType": "address",
                    "name": "delegatee",
                    "type": "address"
                },
                {
                    "internalType": "uint256",
                    "name": "nonce",
                    "type": "uint256"
                },
                {
                    "internalType": "uint256",
                    "name": "expiry",
                    "type": "uint256"
                },
                {
                    "internalType": "uint8",
                    "name": "v",
                    "type": "uint8"
                },
                {
                    "internalType": "bytes32",
                    "name": "r",
                    "type": "bytes32"
                },
                {
                    "internalType": "bytes32",
                    "name": "s",
                    "type": "bytes32"
                }
            ],
            "name": "delegateBySig",
            "outputs": [],
            "stateMutability": "nonpayable",
            "type": "function"
        },
        {
            "inputs": [
                {
                    "internalType": "address",
                    "name": "delegator",
                    "type": "address"
                }
            ],
            "name": "delegates",
            "outputs": [
                {
                    "internalType": "address",
                    "name": "",
                    "type": "address"
                }
            ],
            "stateMutability": "view",
            "type": "function"
        },
        {
            "inputs": [
                {
                    "internalType": "address",
                    "name": "account",
                    "type": "address"
                }
            ],
            "name": "getCurrentVotes",
            "outputs": [
                {
                    "internalType": "uint256",
                    "name": "",
                    "type": "uint256"
                }
            ],
            "stateMutability": "view",
            "type": "function"
        },
        {
            "inputs": [],
            "name": "getOwner",
            "outputs": [
                {
                    "internalType": "address",
                    "name": "",
                    "type": "address"
                }
            ],
            "stateMutability": "view",
            "type": "function"
        },
        {
            "inputs": [
                {
                    "internalType": "address",
                    "name": "account",
                    "type": "address"
                },
                {
                    "internalType": "uint256",
                    "name": "blockNumber",
                    "type": "uint256"
                }
            ],
            "name": "getPriorVotes",
            "outputs": [
                {
                    "internalType": "uint256",
                    "name": "",
                    "type": "uint256"
                }
            ],
            "stateMutability": "view",
            "type": "function"
        },
        {
            "inputs": [
                {
                    "internalType": "address",
                    "name": "spender",
                    "type": "address"
                },
                {
                    "internalType": "uint256",
                    "name": "addedValue",
                    "type": "uint256"
                }
            ],
            "name": "increaseAllowance",
            "outputs": [
                {
                    "internalType": "bool",
                    "name": "",
                    "type": "bool"
                }
            ],
            "stateMutability": "nonpayable",
            "type": "function"
        },
        {
            "inputs": [
                {
                    "internalType": "address",
                    "name": "_to",
                    "type": "address"
                },
                {
                    "internalType": "uint256",
                    "name": "_amount",
                    "type": "uint256"
                }
            ],
            "name": "mint",
            "outputs": [],
            "stateMutability": "nonpayable",
            "type": "function"
        },
        {
            "inputs": [
                {
                    "internalType": "uint256",
                    "name": "amount",
                    "type": "uint256"
                }
            ],
            "name": "mint",
            "outputs": [
                {
                    "internalType": "bool",
                    "name": "",
                    "type": "bool"
                }
            ],
            "stateMutability": "nonpayable",
            "type": "function"
        },
        {
            "inputs": [],
            "name": "name",
            "outputs": [
                {
                    "internalType": "string",
                    "name": "",
                    "type": "string"
                }
            ],
            "stateMutability": "view",
            "type": "function"
        },
        {
            "inputs": [
                {
                    "internalType": "address",
                    "name": "",
                    "type": "address"
                }
            ],
            "name": "nonces",
            "outputs": [
                {
                    "internalType": "uint256",
                    "name": "",
                    "type": "uint256"
                }
            ],
            "stateMutability": "view",
            "type": "function"
        },
        {
            "inputs": [
                {
                    "internalType": "address",
                    "name": "",
                    "type": "address"
                }
            ],
            "name": "numCheckpoints",
            "outputs": [
                {
                    "internalType": "uint32",
                    "name": "",
                    "type": "uint32"
                }
            ],
            "stateMutability": "view",
            "type": "function"
        },
        {
            "inputs": [],
            "name": "owner",
            "outputs": [
                {
                    "internalType": "address",
                    "name": "",
                    "type": "address"
                }
            ],
            "stateMutability": "view",
            "type": "function"
        },
        {
            "inputs": [],
            "name": "renounceOwnership",
            "outputs": [],
            "stateMutability": "nonpayable",
            "type": "function"
        },
        {
            "inputs": [],
            "name": "symbol",
            "outputs": [
                {
                    "internalType": "string",
                    "name": "",
                    "type": "string"
                }
            ],
            "stateMutability": "view",
            "type": "function"
        },
        {
            "inputs": [],
            "name": "totalSupply",
            "outputs": [
                {
                    "internalType": "uint256",
                    "name": "",
                    "type": "uint256"
                }
            ],
            "stateMutability": "view",
            "type": "function"
        },
        {
            "inputs": [
                {
                    "internalType": "address",
                    "name": "recipient",
                    "type": "address"
                },
                {
                    "internalType": "uint256",
                    "name": "amount",
                    "type": "uint256"
                }
            ],
            "name": "transfer",
            "outputs": [
                {
                    "internalType": "bool",
                    "name": "",
                    "type": "bool"
                }
            ],
            "stateMutability": "nonpayable",
            "type": "function"
        },
        {
            "inputs": [
                {
                    "internalType": "address",
                    "name": "sender",
                    "type": "address"
                },
                {
                    "internalType": "address",
                    "name": "recipient",
                    "type": "address"
                },
                {
                    "internalType": "uint256",
                    "name": "amount",
                    "type": "uint256"
                }
            ],
            "name": "transferFrom",
            "outputs": [
                {
                    "internalType": "bool",
                    "name": "",
                    "type": "bool"
                }
            ],
            "stateMutability": "nonpayable",
            "type": "function"
        },
        {
            "inputs": [
                {
                    "internalType": "address",
                    "name": "newOwner",
                    "type": "address"
                }
            ],
            "name": "transferOwnership",
            "outputs": [],
            "stateMutability": "nonpayable",
            "type": "function"
        }
    ],
    "bytecode": "60806040523480156200001157600080fd5b506040518060400160405280600e81526020016d223ab6b83634b733902a37b5b2b760911b81525060405180604001604052806004815260200163044554d560e41b815250600062000068620000f360201b60201c565b600080546001600160a01b0319166001600160a01b0383169081178255604051929350917f8be0079c531659141344cd1fd0a4f28419497f9722a3daafe3b4186f6b6457e0908290a3508151620000c7906004906020850190620000f7565b508051620000dd906005906020840190620000f7565b50506006805460ff191660121790555062000193565b3390565b828054600181600116156101000203166002900490600052602060002090601f016020900481019282601f106200013a57805160ff19168380011785556200016a565b828001600101855582156200016a579182015b828111156200016a5782518255916020019190600101906200014d565b50620001789291506200017c565b5090565b5b808211156200017857600081556001016200017d565b611d9080620001a36000396000f3fe608060405234801561001057600080fd5b50600436106101c45760003560e01c80637ecebe00116100f9578063b4b5ea5711610097578063e7a324dc11610071578063e7a324dc146105a5578063f1127ed8146105ad578063f2fde38b146105ff578063fccc281314610625576101c4565b8063b4b5ea571461050a578063c3cda52014610530578063dd62ed3e14610577576101c4565b806395d89b41116100d357806395d89b411461048d578063a0712d6814610495578063a457c2d7146104b2578063a9059cbb146104de576101c4565b80637ecebe0014610457578063893d20e81461047d5780638da5cb5b14610485576101c4565b806340c10f19116101665780636fcfff45116101405780636fcfff45146103be57806370a08231146103fd578063715018a614610423578063782d6fe11461042b576101c4565b806340c10f1914610328578063587cde1e146103565780635c19a95c14610398576101c4565b806320606b70116101a257806320606b70146102a057806323b872dd146102a8578063313ce567146102de57806339509351146102fc576101c4565b806306fdde03146101c9578063095ea7b31461024657806318160ddd14610286575b600080fd5b6101d161062d565b6040805160208082528351818301528351919283929083019185019080838360005b8381101561020b5781810151838201526020016101f3565b50505050905090810190601f1680156102385780820380516001836020036101000a031916815260200191505b509250505060405180910390f35b6102726004803603604081101561025c57600080fd5b506001600160a01b0381351690602001356106c3565b604080519115158252519081900360200190f35b61028e6106e1565b60408051918252519081900360200190f35b61028e6106e7565b610272600480360360608110156102be57600080fd5b506001600160a01b0381358116916020810135909116906040013561070b565b6102e6610792565b6040805160ff9092168252519081900360200190f35b6102726004803603604081101561031257600080fd5b506001600160a01b03813516906020013561079b565b6103546004803603604081101561033e57600080fd5b506001600160a01b0381351690602001356107e9565b005b61037c6004803603602081101561036c57600080fd5b50356001600160a01b031661087e565b604080516001600160a01b039092168252519081900360200190f35b610354600480360360208110156103ae57600080fd5b50356001600160a01b031661089c565b6103e4600480360360208110156103d457600080fd5b50356001600160a01b03166108a9565b6040805163ffffffff9092168252519081900360200190f35b61028e6004803603602081101561041357600080fd5b50356001600160a01b03166108c1565b6103546108dc565b61028e6004803603604081101561044157600080fd5b506001600160a01b038135169060200135610988565b61028e6004803603602081101561046d57600080fd5b50356001600160a01b0316610b90565b61037c610ba2565b61037c610bb1565b6101d1610bc0565b610272600480360360208110156104ab57600080fd5b5035610c21565b610272600480360360408110156104c857600080fd5b506001600160a01b038135169060200135610c9e565b610272600480360360408110156104f457600080fd5b506001600160a01b038135169060200135610d06565b61028e6004803603602081101561052057600080fd5b50356001600160a01b0316610d1a565b610354600480360360c081101561054657600080fd5b506001600160a01b038135169060208101359060408101359060ff6060820135169060808101359060a00135610d7e565b61028e6004803603604081101561058d57600080fd5b506001600160a01b0381358116916020013516610ff1565b61028e61101c565b6105df600480360360408110156105c357600080fd5b5080356001600160a01b0316906020013563ffffffff16611040565b6040805163ffffffff909316835260208301919091528051918290030190f35b6103546004803603602081101561061557600080fd5b50356001600160a01b031661106d565b61037c61116f565b60048054604080516020601f60026000196101006001881615020190951694909404938401819004810282018101909252828152606093909290918301828280156106b95780601f1061068e576101008083540402835291602001916106b9565b820191906000526020600020905b81548152906001019060200180831161069c57829003601f168201915b5050505050905090565b60006106d76106d0611175565b8484611179565b5060015b92915050565b60035490565b7f8cad95687ba82c2ce50e74f7b754645e5117c3a5bec8151c0726d5857980a86681565b6000610718848484611265565b61078884610724611175565b61078385604051806060016040528060288152602001611bbf602891396001600160a01b038a16600090815260026020526040812090610762611175565b6001600160a01b031681526020810191909152604001600020549190611311565b611179565b5060019392505050565b60065460ff1690565b60006106d76107a8611175565b8461078385600260006107b9611175565b6001600160a01b03908116825260208083019390935260409182016000908120918c1681529252902054906113a8565b6107f1611175565b6001600160a01b0316610802610bb1565b6001600160a01b03161461084b576040805162461bcd60e51b81526020600482018190526024820152600080516020611c08833981519152604482015290519081900360640190fd5b6108558282611402565b6001600160a01b0380831660009081526007602052604081205461087a9216836114e8565b5050565b6001600160a01b039081166000908152600760205260409020541690565b6108a63382611625565b50565b60096020526000908152604090205463ffffffff1681565b6001600160a01b031660009081526001602052604090205490565b6108e4611175565b6001600160a01b03166108f5610bb1565b6001600160a01b03161461093e576040805162461bcd60e51b81526020600482018190526024820152600080516020611c08833981519152604482015290519081900360640190fd5b600080546040516001600160a01b03909116907f8be0079c531659141344cd1fd0a4f28419497f9722a3daafe3b4186f6b6457e0908390a3600080546001600160a01b0319169055565b60004382106109c85760405162461bcd60e51b8152600401808060200182810382526027815260200180611c966027913960400191505060405180910390fd5b6001600160a01b03831660009081526009602052604090205463ffffffff16806109f65760009150506106db565b6001600160a01b038416600090815260086020908152604080832063ffffffff600019860181168552925290912054168310610a65576001600160a01b03841660009081526008602090815260408083206000199490940163ffffffff168352929052206001015490506106db565b6001600160a01b038416600090815260086020908152604080832083805290915290205463ffffffff16831015610aa05760009150506106db565b600060001982015b8163ffffffff168163ffffffff161115610b5957600282820363ffffffff16048103610ad2611af0565b506001600160a01b038716600090815260086020908152604080832063ffffffff808616855290835292819020815180830190925280549093168082526001909301549181019190915290871415610b34576020015194506106db9350505050565b805163ffffffff16871115610b4b57819350610b52565b6001820392505b5050610aa8565b506001600160a01b038516600090815260086020908152604080832063ffffffff9094168352929052206001015491505092915050565b600a6020526000908152604090205481565b6000610bac610bb1565b905090565b6000546001600160a01b031690565b60058054604080516020601f60026000196101006001881615020190951694909404938401819004810282018101909252828152606093909290918301828280156106b95780601f1061068e576101008083540402835291602001916106b9565b6000610c2b611175565b6001600160a01b0316610c3c610bb1565b6001600160a01b031614610c85576040805162461bcd60e51b81526020600482018190526024820152600080516020611c08833981519152604482015290519081900360640190fd5b610c96610c90611175565b83611402565b506001919050565b60006106d7610cab611175565b8461078385604051806060016040528060258152602001611c716025913960026000610cd5611175565b6001600160a01b03908116825260208083019390935260409182016000908120918d16815292529020549190611311565b60006106d7610d13611175565b8484611265565b6001600160a01b03811660009081526009602052604081205463ffffffff1680610d45576000610d77565b6001600160a01b038316600090815260086020908152604080832063ffffffff60001986011684529091529020600101545b9392505050565b60007f8cad95687ba82c2ce50e74f7b754645e5117c3a5bec8151c0726d5857980a866610da961062d565b80519060200120610db86116ba565b60408051602080820195909552808201939093526060830191909152306080808401919091528151808403909101815260a0830182528051908401207fe48329057bfd03d55e49b547132e39cffd9c1820ad7b9d4c5307691425d15adf60c08401526001600160a01b038b1660e084015261010083018a90526101208084018a9052825180850390910181526101408401835280519085012061190160f01b6101608501526101628401829052610182808501829052835180860390910181526101a285018085528151918701919091206000918290526101c2860180865281905260ff8b166101e287015261020286018a90526102228601899052935192965090949293909260019261024280840193601f198301929081900390910190855afa158015610eeb573d6000803e3d6000fd5b5050604051601f1901519150506001600160a01b038116610f3d5760405162461bcd60e51b8152600401808060200182810382526026815260200180611b996026913960400191505060405180910390fd5b6001600160a01b0381166000908152600a602052604090208054600181019091558914610f9b5760405162461bcd60e51b8152600401808060200182810382526022815260200180611b2d6022913960400191505060405180910390fd5b87421115610fda5760405162461bcd60e51b8152600401808060200182810382526026815260200180611d356026913960400191505060405180910390fd5b610fe4818b611625565b505050505b505050505050565b6001600160a01b03918216600090815260026020908152604080832093909416825291909152205490565b7fe48329057bfd03d55e49b547132e39cffd9c1820ad7b9d4c5307691425d15adf81565b60086020908152600092835260408084209091529082529020805460019091015463ffffffff9091169082565b611075611175565b6001600160a01b0316611086610bb1565b6001600160a01b0316146110cf576040805162461bcd60e51b81526020600482018190526024820152600080516020611c08833981519152604482015290519081900360640190fd5b6001600160a01b0381166111145760405162461bcd60e51b8152600401808060200182810382526026815260200180611b736026913960400191505060405180910390fd5b600080546040516001600160a01b03808516939216917f8be0079c531659141344cd1fd0a4f28419497f9722a3daafe3b4186f6b6457e091a3600080546001600160a01b0319166001600160a01b0392909216919091179055565b61dead81565b3390565b6001600160a01b0383166111be5760405162461bcd60e51b8152600401808060200182810382526024815260200180611b4f6024913960400191505060405180910390fd5b6001600160a01b0382166112035760405162461bcd60e51b8152600401808060200182810382526022815260200180611d136022913960400191505060405180910390fd5b6001600160a01b03808416600081815260026020908152604080832094871680845294825291829020859055815185815291517f8c5be1e5ebec7d5bd14f71427d1e84f3dd0314c0f7b2291e5b200ac8c7c3b9259281900390910190a3505050565b6001600160a01b03821661dead1415611288576112838383836116be565b61130c565b60006112a0606461129a846001611810565b90611869565b905060006112ae83836118d0565b905081810183146112f05760405162461bcd60e51b8152600401808060200182810382526022815260200180611cbd6022913960400191505060405180910390fd5b6112fd8561dead846116be565b6113088585836116be565b9150505b505050565b600081848411156113a05760405162461bcd60e51b81526004018080602001828103825283818151815260200191508051906020019080838360005b8381101561136557818101518382015260200161134d565b50505050905090810190601f1680156113925780820380516001836020036101000a031916815260200191505b509250505060405180910390fd5b505050900390565b600082820183811015610d77576040805162461bcd60e51b815260206004820152601b60248201527f536166654d6174683a206164646974696f6e206f766572666c6f770000000000604482015290519081900360640190fd5b6001600160a01b03821661145d576040805162461bcd60e51b815260206004820152601f60248201527f42455032303a206d696e7420746f20746865207a65726f206164647265737300604482015290519081900360640190fd5b60035461146a90826113a8565b6003556001600160a01b03821660009081526001602052604090205461149090826113a8565b6001600160a01b03831660008181526001602090815260408083209490945583518581529351929391927fddf252ad1be2c89b69c2b068fc378daa952ba7f163c4a11628f55a4df523b3ef9281900390910190a35050565b816001600160a01b0316836001600160a01b03161415801561150a5750600081115b1561130c576001600160a01b0383161561159c576001600160a01b03831660009081526009602052604081205463ffffffff16908161154a57600061157c565b6001600160a01b038516600090815260086020908152604080832063ffffffff60001987011684529091529020600101545b9050600061158a82856118d0565b90506115988684848461192d565b5050505b6001600160a01b0382161561130c576001600160a01b03821660009081526009602052604081205463ffffffff1690816115d7576000611609565b6001600160a01b038416600090815260086020908152604080832063ffffffff60001987011684529091529020600101545b9050600061161782856113a8565b9050610fe98584848461192d565b6001600160a01b038083166000908152600760205260408120549091169061164c846108c1565b6001600160a01b0385811660008181526007602052604080822080546001600160a01b031916898616908117909155905194955093928616927f3134e8a2e6d97e929a7e54011ea5485d7d196dd5f0ba4d4ef95803e8e3fc257f9190a46116b48284836114e8565b50505050565b4690565b6001600160a01b0383166117035760405162461bcd60e51b8152600401808060200182810382526025815260200180611b086025913960400191505060405180910390fd5b6001600160a01b0382166117485760405162461bcd60e51b8152600401808060200182810382526023815260200180611c4e6023913960400191505060405180910390fd5b61178581604051806060016040528060268152602001611c28602691396001600160a01b0386166000908152600160205260409020549190611311565b6001600160a01b0380851660009081526001602052604080822093909355908416815220546117b490826113a8565b6001600160a01b0380841660008181526001602090815260409182902094909455805185815290519193928716927fddf252ad1be2c89b69c2b068fc378daa952ba7f163c4a11628f55a4df523b3ef92918290030190a3505050565b60008261181f575060006106db565b8282028284828161182c57fe5b0414610d775760405162461bcd60e51b8152600401808060200182810382526021815260200180611be76021913960400191505060405180910390fd5b60008082116118bf576040805162461bcd60e51b815260206004820152601a60248201527f536166654d6174683a206469766973696f6e206279207a65726f000000000000604482015290519081900360640190fd5b8183816118c857fe5b049392505050565b600082821115611927576040805162461bcd60e51b815260206004820152601e60248201527f536166654d6174683a207375627472616374696f6e206f766572666c6f770000604482015290519081900360640190fd5b50900390565b600061195143604051806060016040528060348152602001611cdf60349139611a92565b905060008463ffffffff1611801561199a57506001600160a01b038516600090815260086020908152604080832063ffffffff6000198901811685529252909120548282169116145b156119d7576001600160a01b038516600090815260086020908152604080832063ffffffff60001989011684529091529020600101829055611a48565b60408051808201825263ffffffff808416825260208083018681526001600160a01b038a166000818152600884528681208b8616825284528681209551865490861663ffffffff19918216178755925160019687015590815260099092529390208054928801909116919092161790555b604080518481526020810184905281516001600160a01b038816927fdec2bacdd2f05b59de34da9b523dff8be42e5e38e818c82fdb0bae774387a724928290030190a25050505050565b6000816401000000008410611ae85760405162461bcd60e51b815260206004820181815283516024840152835190928392604490910191908501908083836000831561136557818101518382015260200161134d565b509192915050565b60408051808201909152600080825260208201529056fe42455032303a207472616e736665722066726f6d20746865207a65726f206164647265737344554d503a3a64656c656761746542795369673a20696e76616c6964206e6f6e636542455032303a20617070726f76652066726f6d20746865207a65726f20616464726573734f776e61626c653a206e6577206f776e657220697320746865207a65726f206164647265737344554d503a3a64656c656761746542795369673a20696e76616c6964207369676e617475726542455032303a207472616e7366657220616d6f756e74206578636565647320616c6c6f77616e6365536166654d6174683a206d756c7469706c69636174696f6e206f766572666c6f774f776e61626c653a2063616c6c6572206973206e6f7420746865206f776e657242455032303a207472616e7366657220616d6f756e7420657863656564732062616c616e636542455032303a207472616e7366657220746f20746865207a65726f206164647265737342455032303a2064656372656173656420616c6c6f77616e63652062656c6f77207a65726f44554d503a3a6765745072696f72566f7465733a206e6f74207965742064657465726d696e656444554d503a3a7472616e736665723a204275726e2076616c756520696e76616c696444554d503a3a5f7772697465436865636b706f696e743a20626c6f636b206e756d6265722065786365656473203332206269747342455032303a20617070726f766520746f20746865207a65726f206164647265737344554d503a3a64656c656761746542795369673a207369676e61747572652065787069726564a2646970667358221220ae9e4c354c2d54cc5310aa33cfb140fbde286e65c7777062ee49e928370df75364736f6c634300060c0033",
    "sourcePath": "/home/bartosz/workspace/CryptoWorkspace/dumplingswap/contracts/contracts/DumplingToken.sol",
    "compiler": {
        "name": "solc",
        "version": "0.6.12+commit.27d51765"
    },
    "functionHashes": {
        "BURN_ADDRESS()": "fccc2813",
        "DELEGATION_TYPEHASH()": "e7a324dc",
        "DOMAIN_TYPEHASH()": "20606b70",
        "allowance(address,address)": "dd62ed3e",
        "approve(address,uint256)": "095ea7b3",
        "balanceOf(address)": "70a08231",
        "checkpoints(address,uint32)": "f1127ed8",
        "decimals()": "313ce567",
        "decreaseAllowance(address,uint256)": "a457c2d7",
        "delegate(address)": "5c19a95c",
        "delegateBySig(address,uint256,uint256,uint8,bytes32,bytes32)": "c3cda520",
        "delegates(address)": "587cde1e",
        "getCurrentVotes(address)": "b4b5ea57",
        "getOwner()": "893d20e8",
        "getPriorVotes(address,uint256)": "782d6fe1",
        "increaseAllowance(address,uint256)": "39509351",
        "mint(address,uint256)": "40c10f19",
        "mint(uint256)": "a0712d68",
        "name()": "06fdde03",
        "nonces(address)": "7ecebe00",
        "numCheckpoints(address)": "6fcfff45",
        "owner()": "8da5cb5b",
        "renounceOwnership()": "715018a6",
        "symbol()": "95d89b41",
        "totalSupply()": "18160ddd",
        "transfer(address,uint256)": "a9059cbb",
        "transferFrom(address,address,uint256)": "23b872dd",
        "transferOwnership(address)": "f2fde38b"
    },
    "gasEstimates": {
        "creation": {
            "codeDepositCost": "1513600",
            "executionCost": "infinite",
            "totalCost": "infinite"
        },
        "external": {
            "BURN_ADDRESS()": "329",
            "DELEGATION_TYPEHASH()": "242",
            "DOMAIN_TYPEHASH()": "244",
            "allowance(address,address)": "1339",
            "approve(address,uint256)": "infinite",
            "balanceOf(address)": "1209",
            "checkpoints(address,uint32)": "2146",
            "decimals()": "1103",
            "decreaseAllowance(address,uint256)": "infinite",
            "delegate(address)": "infinite",
            "delegateBySig(address,uint256,uint256,uint8,bytes32,bytes32)": "infinite",
            "delegates(address)": "1240",
            "getCurrentVotes(address)": "2206",
            "getOwner()": "1140",
            "getPriorVotes(address,uint256)": "infinite",
            "increaseAllowance(address,uint256)": "infinite",
            "mint(address,uint256)": "infinite",
            "mint(uint256)": "infinite",
            "name()": "infinite",
            "nonces(address)": "1170",
            "numCheckpoints(address)": "1184",
            "owner()": "1127",
            "renounceOwnership()": "infinite",
            "symbol()": "infinite",
            "totalSupply()": "1089",
            "transfer(address,uint256)": "infinite",
            "transferFrom(address,address,uint256)": "infinite",
            "transferOwnership(address)": "infinite"
        },
        "internal": {
            "_delegate(address,address)": "infinite",
            "_moveDelegates(address,address,uint256)": "infinite",
            "_transfer(address,address,uint256)": "infinite",
            "_writeCheckpoint(address,uint32,uint256,uint256)": "infinite",
            "getChainId()": "14",
            "safe32(uint256,string memory)": "infinite"
        }
    }
}