{
    "contractName": "LiquidityLock",
    "abi": [
        {
            "inputs": [],
            "stateMutability": "nonpayable",
            "type": "constructor"
        },
        {
            "anonymous": false,
            "inputs": [
                {
                    "indexed": false,
                    "internalType": "uint256",
                    "name": "amount",
                    "type": "uint256"
                },
                {
                    "indexed": false,
                    "internalType": "uint256",
                    "name": "duration",
                    "type": "uint256"
                }
            ],
            "name": "LiquidityLocked",
            "type": "event"
        },
        {
            "anonymous": false,
            "inputs": [
                {
                    "indexed": false,
                    "internalType": "uint256",
                    "name": "amount",
                    "type": "uint256"
                }
            ],
            "name": "LiquidityUnlocked",
            "type": "event"
        },
        {
            "anonymous": false,
            "inputs": [
                {
                    "indexed": true,
                    "internalType": "address",
                    "name": "previousOwner",
                    "type": "address"
                },
                {
                    "indexed": true,
                    "internalType": "address",
                    "name": "newOwner",
                    "type": "address"
                }
            ],
            "name": "OwnershipTransferred",
            "type": "event"
        },
        {
            "inputs": [],
            "name": "lockAmount",
            "outputs": [
                {
                    "internalType": "uint256",
                    "name": "",
                    "type": "uint256"
                }
            ],
            "stateMutability": "view",
            "type": "function"
        },
        {
            "inputs": [],
            "name": "lockDate",
            "outputs": [
                {
                    "internalType": "uint256",
                    "name": "",
                    "type": "uint256"
                }
            ],
            "stateMutability": "view",
            "type": "function"
        },
        {
            "inputs": [],
            "name": "lockDuration",
            "outputs": [
                {
                    "internalType": "uint256",
                    "name": "",
                    "type": "uint256"
                }
            ],
            "stateMutability": "view",
            "type": "function"
        },
        {
            "inputs": [
                {
                    "internalType": "address",
                    "name": "_lptoken",
                    "type": "address"
                },
                {
                    "internalType": "uint256",
                    "name": "_amount",
                    "type": "uint256"
                }
            ],
            "name": "lockLiquidity",
            "outputs": [],
            "stateMutability": "nonpayable",
            "type": "function"
        },
        {
            "inputs": [],
            "name": "owner",
            "outputs": [
                {
                    "internalType": "address",
                    "name": "",
                    "type": "address"
                }
            ],
            "stateMutability": "view",
            "type": "function"
        },
        {
            "inputs": [],
            "name": "renounceOwnership",
            "outputs": [],
            "stateMutability": "nonpayable",
            "type": "function"
        },
        {
            "inputs": [
                {
                    "internalType": "address",
                    "name": "newOwner",
                    "type": "address"
                }
            ],
            "name": "transferOwnership",
            "outputs": [],
            "stateMutability": "nonpayable",
            "type": "function"
        },
        {
            "inputs": [
                {
                    "internalType": "address",
                    "name": "_lptoken",
                    "type": "address"
                }
            ],
            "name": "unlockLiquidity",
            "outputs": [],
            "stateMutability": "nonpayable",
            "type": "function"
        }
    ],
    "bytecode": "608060405262278d0060015534801561001757600080fd5b506000610022610071565b600080546001600160a01b0319166001600160a01b0383169081178255604051929350917f8be0079c531659141344cd1fd0a4f28419497f9722a3daafe3b4186f6b6457e0908290a350610075565b3390565b6109bc806100846000396000f3fe608060405234801561001057600080fd5b50600436106100885760003560e01c80638da5cb5b1161005b5780638da5cb5b146100e5578063d58c66ab14610109578063d8df5dc11461012f578063f2fde38b1461013757610088565b8063045544431461008d578063649ae9c6146100a75780636a336304146100af578063715018a6146100dd575b600080fd5b61009561015d565b60408051918252519081900360200190f35b610095610163565b6100db600480360360408110156100c557600080fd5b506001600160a01b038135169060200135610169565b005b6100db61022d565b6100ed6102d9565b604080516001600160a01b039092168252519081900360200190f35b6100db6004803603602081101561011f57600080fd5b50356001600160a01b03166102e8565b6100956103fe565b6100db6004803603602081101561014d57600080fd5b50356001600160a01b0316610404565b60015481565b60025481565b610171610506565b6001600160a01b03166101826102d9565b6001600160a01b0316146101cb576040805162461bcd60e51b81526020600482018190526024820152600080516020610967833981519152604482015290519081900360640190fd5b816101e16001600160a01b03821633308561050a565b42600255600382905560015460408051848152602081019290925280517fcb75aa8347c098d414422e8cafbbe4e2c1a229f5b27bf425984b2b9792aa787a9281900390910190a1505050565b610235610506565b6001600160a01b03166102466102d9565b6001600160a01b03161461028f576040805162461bcd60e51b81526020600482018190526024820152600080516020610967833981519152604482015290519081900360640190fd5b600080546040516001600160a01b03909116907f8be0079c531659141344cd1fd0a4f28419497f9722a3daafe3b4186f6b6457e0908390a3600080546001600160a01b0319169055565b6000546001600160a01b031690565b6102f0610506565b6001600160a01b03166103016102d9565b6001600160a01b03161461034a576040805162461bcd60e51b81526020600482018190526024820152600080516020610967833981519152604482015290519081900360640190fd5b6001546002546103599161056a565b4210156103a5576040805162461bcd60e51b815260206004820152601560248201527463616e277420756e6c6f636b20796574206475646560581b604482015290519081900360640190fd5b806103c56103b16102d9565b6003546001600160a01b03841691906105cb565b60035460408051918252517f067f6c2397803e8575322da6cadcc91f0cac1d686ede18d96369e2be2856925f9181900360200190a15050565b60035481565b61040c610506565b6001600160a01b031661041d6102d9565b6001600160a01b031614610466576040805162461bcd60e51b81526020600482018190526024820152600080516020610967833981519152604482015290519081900360640190fd5b6001600160a01b0381166104ab5760405162461bcd60e51b815260040180806020018281038252602681526020018061091b6026913960400191505060405180910390fd5b600080546040516001600160a01b03808516939216917f8be0079c531659141344cd1fd0a4f28419497f9722a3daafe3b4186f6b6457e091a3600080546001600160a01b0319166001600160a01b0392909216919091179055565b3390565b604080516001600160a01b0380861660248301528416604482015260648082018490528251808303909101815260849091019091526020810180516001600160e01b03166323b872dd60e01b179052610564908590610622565b50505050565b6000828201838110156105c4576040805162461bcd60e51b815260206004820152601b60248201527f536166654d6174683a206164646974696f6e206f766572666c6f770000000000604482015290519081900360640190fd5b9392505050565b604080516001600160a01b038416602482015260448082018490528251808303909101815260649091019091526020810180516001600160e01b031663a9059cbb60e01b17905261061d908490610622565b505050565b6060610677826040518060400160405280602081526020017f5361666542455032303a206c6f772d6c6576656c2063616c6c206661696c6564815250856001600160a01b03166106d39092919063ffffffff16565b80519091501561061d5780806020019051602081101561069657600080fd5b505161061d5760405162461bcd60e51b815260040180806020018281038252602a8152602001806108f1602a913960400191505060405180910390fd5b60606106e284846000856106ea565b949350505050565b60608247101561072b5760405162461bcd60e51b81526004018080602001828103825260268152602001806109416026913960400191505060405180910390fd5b61073485610846565b610785576040805162461bcd60e51b815260206004820152601d60248201527f416464726573733a2063616c6c20746f206e6f6e2d636f6e7472616374000000604482015290519081900360640190fd5b60006060866001600160a01b031685876040518082805190602001908083835b602083106107c45780518252601f1990920191602091820191016107a5565b6001836020036101000a03801982511681845116808217855250505050505090500191505060006040518083038185875af1925050503d8060008114610826576040519150601f19603f3d011682016040523d82523d6000602084013e61082b565b606091505b509150915061083b82828661084c565b979650505050505050565b3b151590565b6060831561085b5750816105c4565b82511561086b5782518084602001fd5b8160405162461bcd60e51b81526004018080602001828103825283818151815260200191508051906020019080838360005b838110156108b557818101518382015260200161089d565b50505050905090810190601f1680156108e25780820380516001836020036101000a031916815260200191505b509250505060405180910390fdfe5361666542455032303a204245503230206f7065726174696f6e20646964206e6f7420737563636565644f776e61626c653a206e6577206f776e657220697320746865207a65726f2061646472657373416464726573733a20696e73756666696369656e742062616c616e636520666f722063616c6c4f776e61626c653a2063616c6c6572206973206e6f7420746865206f776e6572a26469706673582212206eba3a55908ac1bc38502c21a23173209a1c9827d010d4a3990106ac1878479264736f6c634300060c0033",
    "sourcePath": "/home/bartosz/workspace/CryptoWorkspace/dumplingswap/contracts/contracts/LiquidityLock.sol",
    "compiler": {
        "name": "solc",
        "version": "0.6.12+commit.27d51765"
    },
    "functionHashes": {
        "lockAmount()": "d8df5dc1",
        "lockDate()": "649ae9c6",
        "lockDuration()": "04554443",
        "lockLiquidity(address,uint256)": "6a336304",
        "owner()": "8da5cb5b",
        "renounceOwnership()": "715018a6",
        "transferOwnership(address)": "f2fde38b",
        "unlockLiquidity(address)": "d58c66ab"
    },
    "gasEstimates": {
        "creation": {
            "codeDepositCost": "498400",
            "executionCost": "42971",
            "totalCost": "541371"
        },
        "external": {
            "lockAmount()": "1042",
            "lockDate()": "1021",
            "lockDuration()": "999",
            "lockLiquidity(address,uint256)": "infinite",
            "owner()": "1037",
            "renounceOwnership()": "infinite",
            "transferOwnership(address)": "infinite",
            "unlockLiquidity(address)": "infinite"
        }
    }
}