{
    "contractName": "MasterChef",
    "abi": [
        {
            "inputs": [
                {
                    "internalType": "contract DumplingToken",
                    "name": "_dump",
                    "type": "address"
                },
                {
                    "internalType": "uint256",
                    "name": "_startBlock",
                    "type": "uint256"
                }
            ],
            "stateMutability": "nonpayable",
            "type": "constructor"
        },
        {
            "anonymous": false,
            "inputs": [
                {
                    "indexed": true,
                    "internalType": "address",
                    "name": "user",
                    "type": "address"
                },
                {
                    "indexed": true,
                    "internalType": "uint256",
                    "name": "pid",
                    "type": "uint256"
                },
                {
                    "indexed": false,
                    "internalType": "uint256",
                    "name": "amount",
                    "type": "uint256"
                }
            ],
            "name": "Deposit",
            "type": "event"
        },
        {
            "anonymous": false,
            "inputs": [
                {
                    "indexed": true,
                    "internalType": "address",
                    "name": "user",
                    "type": "address"
                },
                {
                    "indexed": true,
                    "internalType": "uint256",
                    "name": "pid",
                    "type": "uint256"
                },
                {
                    "indexed": false,
                    "internalType": "uint256",
                    "name": "amount",
                    "type": "uint256"
                }
            ],
            "name": "EmergencyWithdraw",
            "type": "event"
        },
        {
            "anonymous": false,
            "inputs": [
                {
                    "indexed": true,
                    "internalType": "address",
                    "name": "caller",
                    "type": "address"
                },
                {
                    "indexed": false,
                    "internalType": "uint256",
                    "name": "previousAmount",
                    "type": "uint256"
                },
                {
                    "indexed": false,
                    "internalType": "uint256",
                    "name": "newAmount",
                    "type": "uint256"
                }
            ],
            "name": "EmissionRateUpdated",
            "type": "event"
        },
        {
            "anonymous": false,
            "inputs": [
                {
                    "indexed": true,
                    "internalType": "address",
                    "name": "previousOwner",
                    "type": "address"
                },
                {
                    "indexed": true,
                    "internalType": "address",
                    "name": "newOwner",
                    "type": "address"
                }
            ],
            "name": "OwnershipTransferred",
            "type": "event"
        },
        {
            "anonymous": false,
            "inputs": [
                {
                    "indexed": true,
                    "internalType": "address",
                    "name": "user",
                    "type": "address"
                },
                {
                    "indexed": true,
                    "internalType": "uint256",
                    "name": "pid",
                    "type": "uint256"
                },
                {
                    "indexed": false,
                    "internalType": "uint256",
                    "name": "amount",
                    "type": "uint256"
                }
            ],
            "name": "Withdraw",
            "type": "event"
        },
        {
            "inputs": [],
            "name": "BONUS_MULTIPLIER",
            "outputs": [
                {
                    "internalType": "uint256",
                    "name": "",
                    "type": "uint256"
                }
            ],
            "stateMutability": "view",
            "type": "function"
        },
        {
            "inputs": [],
            "name": "EMISSION_REDUCTION_PERIOD_BLOCKS",
            "outputs": [
                {
                    "internalType": "uint256",
                    "name": "",
                    "type": "uint256"
                }
            ],
            "stateMutability": "view",
            "type": "function"
        },
        {
            "inputs": [],
            "name": "EMISSION_REDUCTION_RATE_PER_PERIOD",
            "outputs": [
                {
                    "internalType": "uint256",
                    "name": "",
                    "type": "uint256"
                }
            ],
            "stateMutability": "view",
            "type": "function"
        },
        {
            "inputs": [],
            "name": "INITIAL_EMISSION_RATE",
            "outputs": [
                {
                    "internalType": "uint256",
                    "name": "",
                    "type": "uint256"
                }
            ],
            "stateMutability": "view",
            "type": "function"
        },
        {
            "inputs": [],
            "name": "MINIMUM_EMISSION_RATE",
            "outputs": [
                {
                    "internalType": "uint256",
                    "name": "",
                    "type": "uint256"
                }
            ],
            "stateMutability": "view",
            "type": "function"
        },
        {
            "inputs": [
                {
                    "internalType": "uint256",
                    "name": "_allocPoint",
                    "type": "uint256"
                },
                {
                    "internalType": "contract IBEP20",
                    "name": "_lpToken",
                    "type": "address"
                },
                {
                    "internalType": "uint16",
                    "name": "_depositFeeBP",
                    "type": "uint16"
                },
                {
                    "internalType": "bool",
                    "name": "_withUpdate",
                    "type": "bool"
                }
            ],
            "name": "add",
            "outputs": [],
            "stateMutability": "nonpayable",
            "type": "function"
        },
        {
            "inputs": [
                {
                    "internalType": "uint256",
                    "name": "_pid",
                    "type": "uint256"
                },
                {
                    "internalType": "uint256",
                    "name": "_amount",
                    "type": "uint256"
                }
            ],
            "name": "deposit",
            "outputs": [],
            "stateMutability": "nonpayable",
            "type": "function"
        },
        {
            "inputs": [],
            "name": "dump",
            "outputs": [
                {
                    "internalType": "contract DumplingToken",
                    "name": "",
                    "type": "address"
                }
            ],
            "stateMutability": "view",
            "type": "function"
        },
        {
            "inputs": [],
            "name": "dumpPerBlock",
            "outputs": [
                {
                    "internalType": "uint256",
                    "name": "",
                    "type": "uint256"
                }
            ],
            "stateMutability": "view",
            "type": "function"
        },
        {
            "inputs": [
                {
                    "internalType": "uint256",
                    "name": "_pid",
                    "type": "uint256"
                }
            ],
            "name": "emergencyWithdraw",
            "outputs": [],
            "stateMutability": "nonpayable",
            "type": "function"
        },
        {
            "inputs": [],
            "name": "feeAddress",
            "outputs": [
                {
                    "internalType": "address",
                    "name": "",
                    "type": "address"
                }
            ],
            "stateMutability": "view",
            "type": "function"
        },
        {
            "inputs": [
                {
                    "internalType": "uint256",
                    "name": "_from",
                    "type": "uint256"
                },
                {
                    "internalType": "uint256",
                    "name": "_to",
                    "type": "uint256"
                }
            ],
            "name": "getMultiplier",
            "outputs": [
                {
                    "internalType": "uint256",
                    "name": "",
                    "type": "uint256"
                }
            ],
            "stateMutability": "pure",
            "type": "function"
        },
        {
            "inputs": [],
            "name": "lastReductionPeriodIndex",
            "outputs": [
                {
                    "internalType": "uint256",
                    "name": "",
                    "type": "uint256"
                }
            ],
            "stateMutability": "view",
            "type": "function"
        },
        {
            "inputs": [],
            "name": "massUpdatePools",
            "outputs": [],
            "stateMutability": "nonpayable",
            "type": "function"
        },
        {
            "inputs": [],
            "name": "owner",
            "outputs": [
                {
                    "internalType": "address",
                    "name": "",
                    "type": "address"
                }
            ],
            "stateMutability": "view",
            "type": "function"
        },
        {
            "inputs": [
                {
                    "internalType": "uint256",
                    "name": "_pid",
                    "type": "uint256"
                },
                {
                    "internalType": "address",
                    "name": "_user",
                    "type": "address"
                }
            ],
            "name": "pendingDump",
            "outputs": [
                {
                    "internalType": "uint256",
                    "name": "",
                    "type": "uint256"
                }
            ],
            "stateMutability": "view",
            "type": "function"
        },
        {
            "inputs": [
                {
                    "internalType": "uint256",
                    "name": "",
                    "type": "uint256"
                }
            ],
            "name": "poolInfo",
            "outputs": [
                {
                    "internalType": "contract IBEP20",
                    "name": "lpToken",
                    "type": "address"
                },
                {
                    "internalType": "uint256",
                    "name": "allocPoint",
                    "type": "uint256"
                },
                {
                    "internalType": "uint256",
                    "name": "lastRewardBlock",
                    "type": "uint256"
                },
                {
                    "internalType": "uint256",
                    "name": "accDumpPerShare",
                    "type": "uint256"
                },
                {
                    "internalType": "uint16",
                    "name": "depositFeeBP",
                    "type": "uint16"
                }
            ],
            "stateMutability": "view",
            "type": "function"
        },
        {
            "inputs": [],
            "name": "poolLength",
            "outputs": [
                {
                    "internalType": "uint256",
                    "name": "",
                    "type": "uint256"
                }
            ],
            "stateMutability": "view",
            "type": "function"
        },
        {
            "inputs": [],
            "name": "renounceOwnership",
            "outputs": [],
            "stateMutability": "nonpayable",
            "type": "function"
        },
        {
            "inputs": [
                {
                    "internalType": "uint256",
                    "name": "_pid",
                    "type": "uint256"
                },
                {
                    "internalType": "uint256",
                    "name": "_allocPoint",
                    "type": "uint256"
                },
                {
                    "internalType": "uint16",
                    "name": "_depositFeeBP",
                    "type": "uint16"
                },
                {
                    "internalType": "bool",
                    "name": "_withUpdate",
                    "type": "bool"
                }
            ],
            "name": "set",
            "outputs": [],
            "stateMutability": "nonpayable",
            "type": "function"
        },
        {
            "inputs": [
                {
                    "internalType": "address",
                    "name": "_feeAddress",
                    "type": "address"
                }
            ],
            "name": "setFeeAddress",
            "outputs": [],
            "stateMutability": "nonpayable",
            "type": "function"
        },
        {
            "inputs": [
                {
                    "internalType": "uint256",
                    "name": "_startBlock",
                    "type": "uint256"
                }
            ],
            "name": "setStartBlock",
            "outputs": [],
            "stateMutability": "nonpayable",
            "type": "function"
        },
        {
            "inputs": [],
            "name": "startBlock",
            "outputs": [
                {
                    "internalType": "uint256",
                    "name": "",
                    "type": "uint256"
                }
            ],
            "stateMutability": "view",
            "type": "function"
        },
        {
            "inputs": [],
            "name": "totalAllocPoint",
            "outputs": [
                {
                    "internalType": "uint256",
                    "name": "",
                    "type": "uint256"
                }
            ],
            "stateMutability": "view",
            "type": "function"
        },
        {
            "inputs": [
                {
                    "internalType": "address",
                    "name": "newOwner",
                    "type": "address"
                }
            ],
            "name": "transferOwnership",
            "outputs": [],
            "stateMutability": "nonpayable",
            "type": "function"
        },
        {
            "inputs": [],
            "name": "updateEmissionRate",
            "outputs": [],
            "stateMutability": "nonpayable",
            "type": "function"
        },
        {
            "inputs": [
                {
                    "internalType": "uint256",
                    "name": "_pid",
                    "type": "uint256"
                }
            ],
            "name": "updatePool",
            "outputs": [],
            "stateMutability": "nonpayable",
            "type": "function"
        },
        {
            "inputs": [
                {
                    "internalType": "uint256",
                    "name": "",
                    "type": "uint256"
                },
                {
                    "internalType": "address",
                    "name": "",
                    "type": "address"
                }
            ],
            "name": "userInfo",
            "outputs": [
                {
                    "internalType": "uint256",
                    "name": "amount",
                    "type": "uint256"
                },
                {
                    "internalType": "uint256",
                    "name": "rewardDebt",
                    "type": "uint256"
                }
            ],
            "stateMutability": "view",
            "type": "function"
        },
        {
            "inputs": [
                {
                    "internalType": "uint256",
                    "name": "_pid",
                    "type": "uint256"
                },
                {
                    "internalType": "uint256",
                    "name": "_amount",
                    "type": "uint256"
                }
            ],
            "name": "withdraw",
            "outputs": [],
            "stateMutability": "nonpayable",
            "type": "function"
        }
    ],
    "bytecode": "60806040526000600555600060085534801561001a57600080fd5b50604051611ea4380380611ea48339818101604052604081101561003d57600080fd5b50805160209091015160006100506100db565b600080546001600160a01b0319166001600160a01b0383169081178255604051929350917f8be0079c531659141344cd1fd0a4f28419497f9722a3daafe3b4186f6b6457e0908290a35060018055600280546001600160a01b039093166001600160a01b03199384161790556009556003805490911633179055670de0b6b3a76400006004556100df565b3390565b611db6806100ee6000396000f3fe608060405234801561001057600080fd5b50600436106101cf5760003560e01c806384e82a33116101045780639d677ec1116100a2578063e2bbb15811610071578063e2bbb1581461045c578063e43305451461047f578063f2fde38b14610487578063f35e4a6e146104ad576101cf565b80639d677ec11461040f578063b7eee1f114610417578063d4adafdf1461041f578063d963842214610427576101cf565b80638da5cb5b116100de5780638da5cb5b146103975780638dbb1e3a1461039f57806391bb809c146103c257806393f1a40b146103ca576101cf565b806384e82a331461032b5780638705fcd4146103695780638aa285501461038f576101cf565b806351eb05a61161017157806361e0c4681161014b57806361e0c4681461030b578063630b5ba1146103135780636a9a76601461031b578063715018a614610323576101cf565b806351eb05a6146102c95780635312ea8e146102e65780635f27ab0d14610303576101cf565b806332771144116101ad578063327711441461024c5780634127535814610278578063441a3e701461029c57806348cd4cb1146102c1576101cf565b8063081e3eda146101d45780631526fe27146101ee57806317caf6f114610244575b600080fd5b6101dc6104ca565b60408051918252519081900360200190f35b61020b6004803603602081101561020457600080fd5b50356104d0565b604080516001600160a01b039096168652602086019490945284840192909252606084015261ffff166080830152519081900360a00190f35b6101dc61051c565b6101dc6004803603604081101561026257600080fd5b50803590602001356001600160a01b0316610522565b610280610694565b604080516001600160a01b039092168252519081900360200190f35b6102bf600480360360408110156102b257600080fd5b50803590602001356106a3565b005b6101dc61085a565b6102bf600480360360208110156102df57600080fd5b5035610860565b6102bf600480360360208110156102fc57600080fd5b5035610a0e565b6101dc610b0e565b6101dc610b14565b6102bf610b20565b6101dc610b43565b6102bf610b49565b6102bf6004803603608081101561034157600080fd5b508035906001600160a01b036020820135169061ffff60408201351690606001351515610bf5565b6102bf6004803603602081101561037f57600080fd5b50356001600160a01b0316610e03565b6101dc610e84565b610280610e89565b6101dc600480360360408110156103b557600080fd5b5080359060200135610e98565b6101dc610eb0565b6103f6600480360360408110156103e057600080fd5b50803590602001356001600160a01b0316610ebc565b6040805192835260208301919091528051918290030190f35b6102bf610ee0565b6101dc611048565b6101dc61104e565b6102bf6004803603608081101561043d57600080fd5b5080359060208101359061ffff60408201351690606001351515611054565b6102bf6004803603604081101561047257600080fd5b50803590602001356111ae565b61028061138a565b6102bf6004803603602081101561049d57600080fd5b50356001600160a01b0316611399565b6102bf600480360360208110156104c357600080fd5b503561149b565b60065490565b600681815481106104dd57fe5b6000918252602090912060059091020180546001820154600283015460038401546004909401546001600160a01b0390931694509092909161ffff1685565b60085481565b6000806006848154811061053257fe5b600091825260208083208784526007825260408085206001600160a01b0389811687529084528186206005959095029092016003810154815483516370a0823160e01b815230600482015293519298509596909590949316926370a082319260248082019391829003018186803b1580156105ac57600080fd5b505afa1580156105c0573d6000803e3d6000fd5b505050506040513d60208110156105d657600080fd5b50516002850154909150431180156105ed57508015155b15610659576000610602856002015443610e98565b9050600061063560085461062f8860010154610629600454876114e090919063ffffffff16565b906114e0565b90611539565b905061065461064d8461062f8464e8d4a510006114e0565b85906115a0565b935050505b610687836001015461068164e8d4a5100061062f8688600001546114e090919063ffffffff16565b906115fa565b9450505050505b92915050565b6003546001600160a01b031681565b600260015414156106fb576040805162461bcd60e51b815260206004820152601f60248201527f5265656e7472616e637947756172643a207265656e7472616e742063616c6c00604482015290519081900360640190fd5b600260018190555060006006838154811061071257fe5b600091825260208083208684526007825260408085203386529092529220805460059092029092019250831115610785576040805162461bcd60e51b81526020600482015260126024820152711dda5d1a191c985dce881b9bdd0819dbdbd960721b604482015290519081900360640190fd5b61078e84610860565b60006107bc826001015461068164e8d4a5100061062f876003015487600001546114e090919063ffffffff16565b905080156107ce576107ce3382611657565b83156107f85781546107e090856115fa565b825582546107f8906001600160a01b0316338661182a565b600383015482546108139164e8d4a510009161062f916114e0565b6001830155604080518581529051869133917ff279e6a1f5e320cca91135676d9cb6e44ca8a08c0b88342bcdb1144f6511b5689181900360200190a3505060018055505050565b60095481565b60006006828154811061086f57fe5b90600052602060002090600502019050806002015443116108905750610a0b565b8054604080516370a0823160e01b815230600482015290516000926001600160a01b0316916370a08231916024808301926020929190829003018186803b1580156108da57600080fd5b505afa1580156108ee573d6000803e3d6000fd5b505050506040513d602081101561090457600080fd5b5051905080158061091757506001820154155b15610929575043600290910155610a0b565b6000610939836002015443610e98565b9050600061096060085461062f8660010154610629600454876114e090919063ffffffff16565b600254604080516340c10f1960e01b81523060048201526024810184905290519293506001600160a01b03909116916340c10f199160448082019260009290919082900301818387803b1580156109b657600080fd5b505af11580156109ca573d6000803e3d6000fd5b505050506109f86109ed8461062f64e8d4a51000856114e090919063ffffffff16565b6003860154906115a0565b6003850155505043600290920191909155505b50565b60026001541415610a66576040805162461bcd60e51b815260206004820152601f60248201527f5265656e7472616e637947756172643a207265656e7472616e742063616c6c00604482015290519081900360640190fd5b6002600181905550600060068281548110610a7d57fe5b600091825260208083208584526007825260408085203380875293528420805485825560018201959095556005909302018054909450919291610acd916001600160a01b0391909116908361182a565b604080518281529051859133917fbb757047c2b5f3974fe26b7c10f732e7bce710b0952a71082702781e62ae05959181900360200190a35050600180555050565b60045481565b67016345785d8a000081565b60065460005b81811015610b3f57610b3781610860565b600101610b26565b5050565b60055481565b610b51611881565b6001600160a01b0316610b62610e89565b6001600160a01b031614610bab576040805162461bcd60e51b81526020600482018190526024820152600080516020611cac833981519152604482015290519081900360640190fd5b600080546040516001600160a01b03909116907f8be0079c531659141344cd1fd0a4f28419497f9722a3daafe3b4186f6b6457e0908390a3600080546001600160a01b0319169055565b610bfd611881565b6001600160a01b0316610c0e610e89565b6001600160a01b031614610c57576040805162461bcd60e51b81526020600482018190526024820152600080516020611cac833981519152604482015290519081900360640190fd5b6127108261ffff161115610c9c5760405162461bcd60e51b8152600401808060200182810382526025815260200180611baa6025913960400191505060405180910390fd5b8015610caa57610caa610b20565b60006009544311610cbd57600954610cbf565b435b600854909150610ccf90866115a0565b6008556040805160a0810182526001600160a01b0395861681526020810196875290810191825260006060820181815261ffff9586166080840190815260068054600181018255935292517ff652222313e28459528d920b65115c16c04f3efc82aaedc97be59f3f377c0d3f600590930292830180546001600160a01b031916919098161790965595517ff652222313e28459528d920b65115c16c04f3efc82aaedc97be59f3f377c0d4087015590517ff652222313e28459528d920b65115c16c04f3efc82aaedc97be59f3f377c0d4186015592517ff652222313e28459528d920b65115c16c04f3efc82aaedc97be59f3f377c0d428501555090517ff652222313e28459528d920b65115c16c04f3efc82aaedc97be59f3f377c0d43909201805461ffff191692909116919091179055565b6003546001600160a01b03163314610e62576040805162461bcd60e51b815260206004820152601860248201527f736574466565416464726573733a20464f5242494444454e0000000000000000604482015290519081900360640190fd5b600380546001600160a01b0319166001600160a01b0392909216919091179055565b600181565b6000546001600160a01b031690565b6000610ea9600161062984866115fa565b9392505050565b670de0b6b3a764000081565b60076020908152600092835260408084209091529082529020805460019091015482565b6009544311610f205760405162461bcd60e51b815260040180806020018281038252603a815260200180611ccc603a913960400191505060405180910390fd5b67016345785d8a000060045411610f685760405162461bcd60e51b8152600401808060200182810382526043815260200180611d066043913960600191505060405180910390fd5b6000610f8561384061062f600954436115fa90919063ffffffff16565b90506005548111610f965750611046565b6004546005545b82811015610fc157610fb761271061062f846125e46114e0565b9150600101610f9d565b5067016345785d8a00008110610fd75780610fe1565b67016345785d8a00005b90506004548110610ff3575050611046565b610ffb610b20565b600582905560048054908290556040805182815260208101849052815133927feedc6338c9c1ad8f3cd6c90dd09dbe98dbd57e610d3e59a17996d07acb0d9511928290030190a25050505b565b61012c81565b61384081565b61105c611881565b6001600160a01b031661106d610e89565b6001600160a01b0316146110b6576040805162461bcd60e51b81526020600482018190526024820152600080516020611cac833981519152604482015290519081900360640190fd5b6127108261ffff1611156110fb5760405162461bcd60e51b8152600401808060200182810382526025815260200180611c876025913960400191505060405180910390fd5b801561110957611109610b20565b611146836111406006878154811061111d57fe5b9060005260206000209060050201600101546008546115fa90919063ffffffff16565b906115a0565b600881905550826006858154811061115a57fe5b906000526020600020906005020160010181905550816006858154811061117d57fe5b906000526020600020906005020160040160006101000a81548161ffff021916908361ffff16021790555050505050565b60026001541415611206576040805162461bcd60e51b815260206004820152601f60248201527f5265656e7472616e637947756172643a207265656e7472616e742063616c6c00604482015290519081900360640190fd5b600260018190555060006006838154811061121d57fe5b6000918252602080832086845260078252604080852033865290925292206005909102909101915061124e84610860565b805415611297576000611283826001015461068164e8d4a5100061062f876003015487600001546114e090919063ffffffff16565b90508015611295576112953382611657565b505b82156113295781546112b4906001600160a01b0316333086611885565b600482015461ffff161561131a5760048201546000906112e1906127109061062f90879061ffff166114e0565b6003548454919250611300916001600160a01b0390811691168361182a565b815461131290829061068190876115a0565b825550611329565b805461132690846115a0565b81555b600382015481546113449164e8d4a510009161062f916114e0565b6001820155604080518481529051859133917f90890809c654f11d6e72a28fa60149770a0d11ec6c92319d6ceb2bb0a4ea1a159181900360200190a35050600180555050565b6002546001600160a01b031681565b6113a1611881565b6001600160a01b03166113b2610e89565b6001600160a01b0316146113fb576040805162461bcd60e51b81526020600482018190526024820152600080516020611cac833981519152604482015290519081900360640190fd5b6001600160a01b0381166114405760405162461bcd60e51b8152600401808060200182810382526026815260200180611bf96026913960400191505060405180910390fd5b600080546040516001600160a01b03808516939216917f8be0079c531659141344cd1fd0a4f28419497f9722a3daafe3b4186f6b6457e091a3600080546001600160a01b0319166001600160a01b0392909216919091179055565b60095443106114db5760405162461bcd60e51b8152600401808060200182810382526038815260200180611d496038913960400191505060405180910390fd5b600955565b6000826114ef5750600061068e565b828202828482816114fc57fe5b0414610ea95760405162461bcd60e51b8152600401808060200182810382526021815260200180611c666021913960400191505060405180910390fd5b600080821161158f576040805162461bcd60e51b815260206004820152601a60248201527f536166654d6174683a206469766973696f6e206279207a65726f000000000000604482015290519081900360640190fd5b81838161159857fe5b049392505050565b600082820183811015610ea9576040805162461bcd60e51b815260206004820152601b60248201527f536166654d6174683a206164646974696f6e206f766572666c6f770000000000604482015290519081900360640190fd5b600082821115611651576040805162461bcd60e51b815260206004820152601e60248201527f536166654d6174683a207375627472616374696f6e206f766572666c6f770000604482015290519081900360640190fd5b50900390565b600254604080516370a0823160e01b815230600482015290516000926001600160a01b0316916370a08231916024808301926020929190829003018186803b1580156116a257600080fd5b505afa1580156116b6573d6000803e3d6000fd5b505050506040513d60208110156116cc57600080fd5b50519050600081831115611763576002546040805163a9059cbb60e01b81526001600160a01b038781166004830152602482018690529151919092169163a9059cbb9160448083019260209291908290030181600087803b15801561173057600080fd5b505af1158015611744573d6000803e3d6000fd5b505050506040513d602081101561175a57600080fd5b505190506117e8565b6002546040805163a9059cbb60e01b81526001600160a01b038781166004830152602482018790529151919092169163a9059cbb9160448083019260209291908290030181600087803b1580156117b957600080fd5b505af11580156117cd573d6000803e3d6000fd5b505050506040513d60208110156117e357600080fd5b505190505b806118245760405162461bcd60e51b8152600401808060200182810382526021815260200180611c456021913960400191505060405180910390fd5b50505050565b604080516001600160a01b038416602482015260448082018490528251808303909101815260649091019091526020810180516001600160e01b031663a9059cbb60e01b17905261187c9084906118db565b505050565b3390565b604080516001600160a01b0380861660248301528416604482015260648082018490528251808303909101815260849091019091526020810180516001600160e01b03166323b872dd60e01b1790526118249085905b6060611930826040518060400160405280602081526020017f5361666542455032303a206c6f772d6c6576656c2063616c6c206661696c6564815250856001600160a01b031661198c9092919063ffffffff16565b80519091501561187c5780806020019051602081101561194f57600080fd5b505161187c5760405162461bcd60e51b815260040180806020018281038252602a815260200180611bcf602a913960400191505060405180910390fd5b606061199b84846000856119a3565b949350505050565b6060824710156119e45760405162461bcd60e51b8152600401808060200182810382526026815260200180611c1f6026913960400191505060405180910390fd5b6119ed85611aff565b611a3e576040805162461bcd60e51b815260206004820152601d60248201527f416464726573733a2063616c6c20746f206e6f6e2d636f6e7472616374000000604482015290519081900360640190fd5b60006060866001600160a01b031685876040518082805190602001908083835b60208310611a7d5780518252601f199092019160209182019101611a5e565b6001836020036101000a03801982511681845116808217855250505050505090500191505060006040518083038185875af1925050503d8060008114611adf576040519150601f19603f3d011682016040523d82523d6000602084013e611ae4565b606091505b5091509150611af4828286611b05565b979650505050505050565b3b151590565b60608315611b14575081610ea9565b825115611b245782518084602001fd5b8160405162461bcd60e51b81526004018080602001828103825283818151815260200191508051906020019080838360005b83811015611b6e578181015183820152602001611b56565b50505050905090810190601f168015611b9b5780820380516001836020036101000a031916815260200191505b509250505060405180910390fdfe6164643a20696e76616c6964206465706f7369742066656520626173697320706f696e74735361666542455032303a204245503230206f7065726174696f6e20646964206e6f7420737563636565644f776e61626c653a206e6577206f776e657220697320746865207a65726f2061646472657373416464726573733a20696e73756666696369656e742062616c616e636520666f722063616c6c7361666544756d705472616e736665723a205472616e73666572206661696c6564536166654d6174683a206d756c7469706c69636174696f6e206f766572666c6f777365743a20696e76616c6964206465706f7369742066656520626173697320706f696e74734f776e61626c653a2063616c6c6572206973206e6f7420746865206f776e6572757064617465456d697373696f6e526174653a2043616e206f6e6c792062652063616c6c6564206166746572206d696e696e6720737461727473757064617465456d697373696f6e526174653a20456d697373696f6e207261746520686173207265616368656420746865206d696e696d756d207468726573686f6c644974277320746f6f206c61746520746f20706f7374706f6e65206d696e696e672e2049742068617320616c72656164792073746172746564a2646970667358221220602f252bb02b7af50f70f9c984f2097cae72f8fc293b971f93f0b276c4c17d9a64736f6c634300060c0033",
    "sourcePath": "/home/bartosz/workspace/CryptoWorkspace/dumplingswap/contracts/contracts/MasterChef.sol",
    "compiler": {
        "name": "solc",
        "version": "0.6.12+commit.27d51765"
    },
    "functionHashes": {
        "BONUS_MULTIPLIER()": "8aa28550",
        "EMISSION_REDUCTION_PERIOD_BLOCKS()": "d4adafdf",
        "EMISSION_REDUCTION_RATE_PER_PERIOD()": "b7eee1f1",
        "INITIAL_EMISSION_RATE()": "91bb809c",
        "MINIMUM_EMISSION_RATE()": "61e0c468",
        "add(uint256,address,uint16,bool)": "84e82a33",
        "deposit(uint256,uint256)": "e2bbb158",
        "dump()": "e4330545",
        "dumpPerBlock()": "5f27ab0d",
        "emergencyWithdraw(uint256)": "5312ea8e",
        "feeAddress()": "41275358",
        "getMultiplier(uint256,uint256)": "8dbb1e3a",
        "lastReductionPeriodIndex()": "6a9a7660",
        "massUpdatePools()": "630b5ba1",
        "owner()": "8da5cb5b",
        "pendingDump(uint256,address)": "32771144",
        "poolInfo(uint256)": "1526fe27",
        "poolLength()": "081e3eda",
        "renounceOwnership()": "715018a6",
        "set(uint256,uint256,uint16,bool)": "d9638422",
        "setFeeAddress(address)": "8705fcd4",
        "setStartBlock(uint256)": "f35e4a6e",
        "startBlock()": "48cd4cb1",
        "totalAllocPoint()": "17caf6f1",
        "transferOwnership(address)": "f2fde38b",
        "updateEmissionRate()": "9d677ec1",
        "updatePool(uint256)": "51eb05a6",
        "userInfo(uint256,address)": "93f1a40b",
        "withdraw(uint256,uint256)": "441a3e70"
    },
    "gasEstimates": {
        "creation": {
            "codeDepositCost": "1521200",
            "executionCost": "infinite",
            "totalCost": "infinite"
        },
        "external": {
            "BONUS_MULTIPLIER()": "288",
            "EMISSION_REDUCTION_PERIOD_BLOCKS()": "287",
            "EMISSION_REDUCTION_RATE_PER_PERIOD()": "265",
            "INITIAL_EMISSION_RATE()": "287",
            "MINIMUM_EMISSION_RATE()": "243",
            "add(uint256,address,uint16,bool)": "infinite",
            "deposit(uint256,uint256)": "infinite",
            "dump()": "1103",
            "dumpPerBlock()": "1088",
            "emergencyWithdraw(uint256)": "infinite",
            "feeAddress()": "1105",
            "getMultiplier(uint256,uint256)": "infinite",
            "lastReductionPeriodIndex()": "1087",
            "massUpdatePools()": "infinite",
            "owner()": "1082",
            "pendingDump(uint256,address)": "infinite",
            "poolInfo(uint256)": "5403",
            "poolLength()": "1045",
            "renounceOwnership()": "infinite",
            "set(uint256,uint256,uint16,bool)": "infinite",
            "setFeeAddress(address)": "21981",
            "setStartBlock(uint256)": "infinite",
            "startBlock()": "1110",
            "totalAllocPoint()": "1089",
            "transferOwnership(address)": "infinite",
            "updateEmissionRate()": "infinite",
            "updatePool(uint256)": "infinite",
            "userInfo(uint256,address)": "2161",
            "withdraw(uint256,uint256)": "infinite"
        },
        "internal": {
            "safeDumpTransfer(address,uint256)": "infinite"
        }
    }
}