{
    "contractName": "Timelock",
    "abi": [
        {
            "inputs": [
                {
                    "internalType": "address",
                    "name": "admin_",
                    "type": "address"
                },
                {
                    "internalType": "uint256",
                    "name": "delay_",
                    "type": "uint256"
                }
            ],
            "stateMutability": "nonpayable",
            "type": "constructor"
        },
        {
            "anonymous": false,
            "inputs": [
                {
                    "indexed": true,
                    "internalType": "bytes32",
                    "name": "txHash",
                    "type": "bytes32"
                },
                {
                    "indexed": true,
                    "internalType": "address",
                    "name": "target",
                    "type": "address"
                },
                {
                    "indexed": false,
                    "internalType": "uint256",
                    "name": "value",
                    "type": "uint256"
                },
                {
                    "indexed": false,
                    "internalType": "string",
                    "name": "signature",
                    "type": "string"
                },
                {
                    "indexed": false,
                    "internalType": "bytes",
                    "name": "data",
                    "type": "bytes"
                },
                {
                    "indexed": false,
                    "internalType": "uint256",
                    "name": "eta",
                    "type": "uint256"
                }
            ],
            "name": "CancelTransaction",
            "type": "event"
        },
        {
            "anonymous": false,
            "inputs": [
                {
                    "indexed": true,
                    "internalType": "bytes32",
                    "name": "txHash",
                    "type": "bytes32"
                },
                {
                    "indexed": true,
                    "internalType": "address",
                    "name": "target",
                    "type": "address"
                },
                {
                    "indexed": false,
                    "internalType": "uint256",
                    "name": "value",
                    "type": "uint256"
                },
                {
                    "indexed": false,
                    "internalType": "string",
                    "name": "signature",
                    "type": "string"
                },
                {
                    "indexed": false,
                    "internalType": "bytes",
                    "name": "data",
                    "type": "bytes"
                },
                {
                    "indexed": false,
                    "internalType": "uint256",
                    "name": "eta",
                    "type": "uint256"
                }
            ],
            "name": "ExecuteTransaction",
            "type": "event"
        },
        {
            "anonymous": false,
            "inputs": [
                {
                    "indexed": true,
                    "internalType": "address",
                    "name": "newAdmin",
                    "type": "address"
                }
            ],
            "name": "NewAdmin",
            "type": "event"
        },
        {
            "anonymous": false,
            "inputs": [
                {
                    "indexed": true,
                    "internalType": "uint256",
                    "name": "newDelay",
                    "type": "uint256"
                }
            ],
            "name": "NewDelay",
            "type": "event"
        },
        {
            "anonymous": false,
            "inputs": [
                {
                    "indexed": true,
                    "internalType": "address",
                    "name": "newPendingAdmin",
                    "type": "address"
                }
            ],
            "name": "NewPendingAdmin",
            "type": "event"
        },
        {
            "anonymous": false,
            "inputs": [
                {
                    "indexed": true,
                    "internalType": "bytes32",
                    "name": "txHash",
                    "type": "bytes32"
                },
                {
                    "indexed": true,
                    "internalType": "address",
                    "name": "target",
                    "type": "address"
                },
                {
                    "indexed": false,
                    "internalType": "uint256",
                    "name": "value",
                    "type": "uint256"
                },
                {
                    "indexed": false,
                    "internalType": "string",
                    "name": "signature",
                    "type": "string"
                },
                {
                    "indexed": false,
                    "internalType": "bytes",
                    "name": "data",
                    "type": "bytes"
                },
                {
                    "indexed": false,
                    "internalType": "uint256",
                    "name": "eta",
                    "type": "uint256"
                }
            ],
            "name": "QueueTransaction",
            "type": "event"
        },
        {
            "inputs": [],
            "name": "GRACE_PERIOD",
            "outputs": [
                {
                    "internalType": "uint256",
                    "name": "",
                    "type": "uint256"
                }
            ],
            "stateMutability": "view",
            "type": "function"
        },
        {
            "inputs": [],
            "name": "MAXIMUM_DELAY",
            "outputs": [
                {
                    "internalType": "uint256",
                    "name": "",
                    "type": "uint256"
                }
            ],
            "stateMutability": "view",
            "type": "function"
        },
        {
            "inputs": [],
            "name": "MINIMUM_DELAY",
            "outputs": [
                {
                    "internalType": "uint256",
                    "name": "",
                    "type": "uint256"
                }
            ],
            "stateMutability": "view",
            "type": "function"
        },
        {
            "inputs": [],
            "name": "acceptAdmin",
            "outputs": [],
            "stateMutability": "nonpayable",
            "type": "function"
        },
        {
            "inputs": [],
            "name": "admin",
            "outputs": [
                {
                    "internalType": "address",
                    "name": "",
                    "type": "address"
                }
            ],
            "stateMutability": "view",
            "type": "function"
        },
        {
            "inputs": [],
            "name": "admin_initialized",
            "outputs": [
                {
                    "internalType": "bool",
                    "name": "",
                    "type": "bool"
                }
            ],
            "stateMutability": "view",
            "type": "function"
        },
        {
            "inputs": [
                {
                    "internalType": "address",
                    "name": "target",
                    "type": "address"
                },
                {
                    "internalType": "uint256",
                    "name": "value",
                    "type": "uint256"
                },
                {
                    "internalType": "string",
                    "name": "signature",
                    "type": "string"
                },
                {
                    "internalType": "bytes",
                    "name": "data",
                    "type": "bytes"
                },
                {
                    "internalType": "uint256",
                    "name": "eta",
                    "type": "uint256"
                }
            ],
            "name": "cancelTransaction",
            "outputs": [],
            "stateMutability": "nonpayable",
            "type": "function"
        },
        {
            "inputs": [],
            "name": "delay",
            "outputs": [
                {
                    "internalType": "uint256",
                    "name": "",
                    "type": "uint256"
                }
            ],
            "stateMutability": "view",
            "type": "function"
        },
        {
            "inputs": [
                {
                    "internalType": "address",
                    "name": "target",
                    "type": "address"
                },
                {
                    "internalType": "uint256",
                    "name": "value",
                    "type": "uint256"
                },
                {
                    "internalType": "string",
                    "name": "signature",
                    "type": "string"
                },
                {
                    "internalType": "bytes",
                    "name": "data",
                    "type": "bytes"
                },
                {
                    "internalType": "uint256",
                    "name": "eta",
                    "type": "uint256"
                }
            ],
            "name": "executeTransaction",
            "outputs": [
                {
                    "internalType": "bytes",
                    "name": "",
                    "type": "bytes"
                }
            ],
            "stateMutability": "payable",
            "type": "function"
        },
        {
            "inputs": [],
            "name": "pendingAdmin",
            "outputs": [
                {
                    "internalType": "address",
                    "name": "",
                    "type": "address"
                }
            ],
            "stateMutability": "view",
            "type": "function"
        },
        {
            "inputs": [
                {
                    "internalType": "address",
                    "name": "target",
                    "type": "address"
                },
                {
                    "internalType": "uint256",
                    "name": "value",
                    "type": "uint256"
                },
                {
                    "internalType": "string",
                    "name": "signature",
                    "type": "string"
                },
                {
                    "internalType": "bytes",
                    "name": "data",
                    "type": "bytes"
                },
                {
                    "internalType": "uint256",
                    "name": "eta",
                    "type": "uint256"
                }
            ],
            "name": "queueTransaction",
            "outputs": [
                {
                    "internalType": "bytes32",
                    "name": "",
                    "type": "bytes32"
                }
            ],
            "stateMutability": "nonpayable",
            "type": "function"
        },
        {
            "inputs": [
                {
                    "internalType": "bytes32",
                    "name": "",
                    "type": "bytes32"
                }
            ],
            "name": "queuedTransactions",
            "outputs": [
                {
                    "internalType": "bool",
                    "name": "",
                    "type": "bool"
                }
            ],
            "stateMutability": "view",
            "type": "function"
        },
        {
            "inputs": [
                {
                    "internalType": "uint256",
                    "name": "delay_",
                    "type": "uint256"
                }
            ],
            "name": "setDelay",
            "outputs": [],
            "stateMutability": "nonpayable",
            "type": "function"
        },
        {
            "inputs": [
                {
                    "internalType": "address",
                    "name": "pendingAdmin_",
                    "type": "address"
                }
            ],
            "name": "setPendingAdmin",
            "outputs": [],
            "stateMutability": "nonpayable",
            "type": "function"
        },
        {
            "stateMutability": "payable",
            "type": "receive"
        }
    ],
    "bytecode": "608060405234801561001057600080fd5b5060405161196b38038061196b8339818101604052604081101561003357600080fd5b50805160209091015161546081101561007d5760405162461bcd60e51b81526004018080602001828103825260378152602001806119346037913960400191505060405180910390fd5b62278d008111156100bf5760405162461bcd60e51b815260040180806020018281038252603b8152602001806118f9603b913960400191505060405180910390fd5b600080546001600160a01b039093166001600160a01b0319909316929092179091556002556003805460ff191690556117fc806100fd6000396000f3fe6080604052600436106100e15760003560e01c80636fc1f57e1161007f578063c1a287e211610059578063c1a287e214610631578063e177246e14610646578063f2b0653714610670578063f851a4401461069a576100e8565b80636fc1f57e146105de5780637d645fab14610607578063b1b43ae51461061c576100e8565b80633a66f901116100bb5780633a66f901146102ea5780634dd18bf514610449578063591fcdfe1461047c5780636a42b8f8146105c9576100e8565b80630825f38f146100ed5780630e18b681146102a257806326782247146102b9576100e8565b366100e857005b600080fd5b61022d600480360360a081101561010357600080fd5b6001600160a01b0382351691602081013591810190606081016040820135600160201b81111561013257600080fd5b82018360208201111561014457600080fd5b803590602001918460018302840111600160201b8311171561016557600080fd5b91908080601f0160208091040260200160405190810160405280939291908181526020018383808284376000920191909152509295949360208101935035915050600160201b8111156101b757600080fd5b8201836020820111156101c957600080fd5b803590602001918460018302840111600160201b831117156101ea57600080fd5b91908080601f01602080910402602001604051908101604052809392919081815260200183838082843760009201919091525092955050913592506106af915050565b6040805160208082528351818301528351919283929083019185019080838360005b8381101561026757818101518382015260200161024f565b50505050905090810190601f1680156102945780820380516001836020036101000a031916815260200191505b509250505060405180910390f35b3480156102ae57600080fd5b506102b7610baf565b005b3480156102c557600080fd5b506102ce610c4b565b604080516001600160a01b039092168252519081900360200190f35b3480156102f657600080fd5b50610437600480360360a081101561030d57600080fd5b6001600160a01b0382351691602081013591810190606081016040820135600160201b81111561033c57600080fd5b82018360208201111561034e57600080fd5b803590602001918460018302840111600160201b8311171561036f57600080fd5b91908080601f0160208091040260200160405190810160405280939291908181526020018383808284376000920191909152509295949360208101935035915050600160201b8111156103c157600080fd5b8201836020820111156103d357600080fd5b803590602001918460018302840111600160201b831117156103f457600080fd5b91908080601f0160208091040260200160405190810160405280939291908181526020018383808284376000920191909152509295505091359250610c5a915050565b60408051918252519081900360200190f35b34801561045557600080fd5b506102b76004803603602081101561046c57600080fd5b50356001600160a01b0316610f5c565b34801561048857600080fd5b506102b7600480360360a081101561049f57600080fd5b6001600160a01b0382351691602081013591810190606081016040820135600160201b8111156104ce57600080fd5b8201836020820111156104e057600080fd5b803590602001918460018302840111600160201b8311171561050157600080fd5b91908080601f0160208091040260200160405190810160405280939291908181526020018383808284376000920191909152509295949360208101935035915050600160201b81111561055357600080fd5b82018360208201111561056557600080fd5b803590602001918460018302840111600160201b8311171561058657600080fd5b91908080601f0160208091040260200160405190810160405280939291908181526020018383808284376000920191909152509295505091359250611051915050565b3480156105d557600080fd5b506104376112fe565b3480156105ea57600080fd5b506105f3611304565b604080519115158252519081900360200190f35b34801561061357600080fd5b5061043761130d565b34801561062857600080fd5b50610437611314565b34801561063d57600080fd5b5061043761131a565b34801561065257600080fd5b506102b76004803603602081101561066957600080fd5b5035611321565b34801561067c57600080fd5b506105f36004803603602081101561069357600080fd5b5035611415565b3480156106a657600080fd5b506102ce61142a565b6000546060906001600160a01b031633146106fb5760405162461bcd60e51b815260040180806020018281038252603881526020018061149f6038913960400191505060405180910390fd5b6000868686868660405160200180866001600160a01b031681526020018581526020018060200180602001848152602001838103835286818151815260200191508051906020019080838360005b83811015610761578181015183820152602001610749565b50505050905090810190601f16801561078e5780820380516001836020036101000a031916815260200191505b50838103825285518152855160209182019187019080838360005b838110156107c15781810151838201526020016107a9565b50505050905090810190601f1680156107ee5780820380516001836020036101000a031916815260200191505b5060408051601f1981840301815291815281516020928301206000818152600490935291205490995060ff16975061085f96505050505050505760405162461bcd60e51b815260040180806020018281038252603d81526020018061162d603d913960400191505060405180910390fd5b82610868611439565b10156108a55760405162461bcd60e51b81526004018080602001828103825260458152602001806115416045913960600191505060405180910390fd5b6108b2836212750061143d565b6108ba611439565b11156108f75760405162461bcd60e51b815260040180806020018281038252603381526020018061150e6033913960400191505060405180910390fd5b6000818152600460205260409020805460ff19169055845160609061091d5750836109a0565b85805190602001208560405160200180836001600160e01b031916815260040182805190602001908083835b602083106109685780518252601f199092019160209182019101610949565b6001836020036101000a0380198251168184511680821785525050505050509050019250505060405160208183030381529060405290505b60006060896001600160a01b031689846040518082805190602001908083835b602083106109df5780518252601f1990920191602091820191016109c0565b6001836020036101000a03801982511681845116808217855250505050505090500191505060006040518083038185875af1925050503d8060008114610a41576040519150601f19603f3d011682016040523d82523d6000602084013e610a46565b606091505b509150915081610a875760405162461bcd60e51b815260040180806020018281038252603d815260200180611710603d913960400191505060405180910390fd5b896001600160a01b0316847fa560e3198060a2f10670c1ec5b403077ea6ae93ca8de1c32b451dc1a943cd6e78b8b8b8b604051808581526020018060200180602001848152602001838103835286818151815260200191508051906020019080838360005b83811015610b04578181015183820152602001610aec565b50505050905090810190601f168015610b315780820380516001836020036101000a031916815260200191505b50838103825285518152855160209182019187019080838360005b83811015610b64578181015183820152602001610b4c565b50505050905090810190601f168015610b915780820380516001836020036101000a031916815260200191505b50965050505050505060405180910390a39998505050505050505050565b6001546001600160a01b03163314610bf85760405162461bcd60e51b815260040180806020018281038252603881526020018061166a6038913960400191505060405180910390fd5b60008054336001600160a01b031991821617808355600180549092169091556040516001600160a01b03909116917f71614071b88dee5e0b2ae578a9dd7b2ebbe9ae832ba419dc0242cd065a290b6c91a2565b6001546001600160a01b031681565b600080546001600160a01b03163314610ca45760405162461bcd60e51b81526004018080602001828103825260368152602001806116da6036913960400191505060405180910390fd5b610cb8600254610cb2611439565b9061143d565b821015610cf65760405162461bcd60e51b815260040180806020018281038252604981526020018061174d6049913960600191505060405180910390fd5b6000868686868660405160200180866001600160a01b031681526020018581526020018060200180602001848152602001838103835286818151815260200191508051906020019080838360005b83811015610d5c578181015183820152602001610d44565b50505050905090810190601f168015610d895780820380516001836020036101000a031916815260200191505b50838103825285518152855160209182019187019080838360005b83811015610dbc578181015183820152602001610da4565b50505050905090810190601f168015610de95780820380516001836020036101000a031916815260200191505b5097505050505050505060405160208183030381529060405280519060200120905060016004600083815260200190815260200160002060006101000a81548160ff021916908315150217905550866001600160a01b0316817f76e2796dc3a81d57b0e8504b647febcbeeb5f4af818e164f11eef8131a6a763f88888888604051808581526020018060200180602001848152602001838103835286818151815260200191508051906020019080838360005b83811015610eb4578181015183820152602001610e9c565b50505050905090810190601f168015610ee15780820380516001836020036101000a031916815260200191505b50838103825285518152855160209182019187019080838360005b83811015610f14578181015183820152602001610efc565b50505050905090810190601f168015610f415780820380516001836020036101000a031916815260200191505b50965050505050505060405180910390a39695505050505050565b60035460ff1615610faa57333014610fa55760405162461bcd60e51b81526004018080602001828103825260388152602001806116a26038913960400191505060405180910390fd5b611001565b6000546001600160a01b03163314610ff35760405162461bcd60e51b815260040180806020018281038252603b8152602001806115ba603b913960400191505060405180910390fd5b6003805460ff191660011790555b600180546001600160a01b0319166001600160a01b0383811691909117918290556040519116907f69d78e38a01985fbb1462961809b4b2d65531bc93b2b94037f3334b82ca4a75690600090a250565b6000546001600160a01b0316331461109a5760405162461bcd60e51b81526004018080602001828103825260378152602001806114d76037913960400191505060405180910390fd5b6000858585858560405160200180866001600160a01b031681526020018581526020018060200180602001848152602001838103835286818151815260200191508051906020019080838360005b838110156111005781810151838201526020016110e8565b50505050905090810190601f16801561112d5780820380516001836020036101000a031916815260200191505b50838103825285518152855160209182019187019080838360005b83811015611160578181015183820152602001611148565b50505050905090810190601f16801561118d5780820380516001836020036101000a031916815260200191505b5097505050505050505060405160208183030381529060405280519060200120905060006004600083815260200190815260200160002060006101000a81548160ff021916908315150217905550856001600160a01b0316817f2fffc091a501fd91bfbff27141450d3acb40fb8e6d8382b243ec7a812a3aaf8787878787604051808581526020018060200180602001848152602001838103835286818151815260200191508051906020019080838360005b83811015611258578181015183820152602001611240565b50505050905090810190601f1680156112855780820380516001836020036101000a031916815260200191505b50838103825285518152855160209182019187019080838360005b838110156112b85781810151838201526020016112a0565b50505050905090810190601f1680156112e55780820380516001836020036101000a031916815260200191505b50965050505050505060405180910390a3505050505050565b60025481565b60035460ff1681565b62278d0081565b61546081565b6212750081565b33301461135f5760405162461bcd60e51b81526004018080602001828103825260318152602001806117966031913960400191505060405180910390fd5b6154608110156113a05760405162461bcd60e51b81526004018080602001828103825260348152602001806115866034913960400191505060405180910390fd5b62278d008111156113e25760405162461bcd60e51b81526004018080602001828103825260388152602001806115f56038913960400191505060405180910390fd5b600281905560405181907f948b1f6a42ee138b7e34058ba85a37f716d55ff25ff05a763f15bed6a04c8d2c90600090a250565b60046020526000908152604090205460ff1681565b6000546001600160a01b031681565b4290565b600082820183811015611497576040805162461bcd60e51b815260206004820152601b60248201527f536166654d6174683a206164646974696f6e206f766572666c6f770000000000604482015290519081900360640190fd5b939250505056fe54696d656c6f636b3a3a657865637574655472616e73616374696f6e3a2043616c6c206d75737420636f6d652066726f6d2061646d696e2e54696d656c6f636b3a3a63616e63656c5472616e73616374696f6e3a2043616c6c206d75737420636f6d652066726f6d2061646d696e2e54696d656c6f636b3a3a657865637574655472616e73616374696f6e3a205472616e73616374696f6e206973207374616c652e54696d656c6f636b3a3a657865637574655472616e73616374696f6e3a205472616e73616374696f6e206861736e2774207375727061737365642074696d65206c6f636b2e54696d656c6f636b3a3a73657444656c61793a2044656c6179206d75737420657863656564206d696e696d756d2064656c61792e54696d656c6f636b3a3a73657450656e64696e6741646d696e3a2046697273742063616c6c206d75737420636f6d652066726f6d2061646d696e2e54696d656c6f636b3a3a73657444656c61793a2044656c6179206d757374206e6f7420657863656564206d6178696d756d2064656c61792e54696d656c6f636b3a3a657865637574655472616e73616374696f6e3a205472616e73616374696f6e206861736e2774206265656e207175657565642e54696d656c6f636b3a3a61636365707441646d696e3a2043616c6c206d75737420636f6d652066726f6d2070656e64696e6741646d696e2e54696d656c6f636b3a3a73657450656e64696e6741646d696e3a2043616c6c206d75737420636f6d652066726f6d2054696d656c6f636b2e54696d656c6f636b3a3a71756575655472616e73616374696f6e3a2043616c6c206d75737420636f6d652066726f6d2061646d696e2e54696d656c6f636b3a3a657865637574655472616e73616374696f6e3a205472616e73616374696f6e20657865637574696f6e2072657665727465642e54696d656c6f636b3a3a71756575655472616e73616374696f6e3a20457374696d6174656420657865637574696f6e20626c6f636b206d75737420736174697366792064656c61792e54696d656c6f636b3a3a73657444656c61793a2043616c6c206d75737420636f6d652066726f6d2054696d656c6f636b2ea26469706673582212202b2531eddef616b44434597a7ea615bbf0c95abfd7b5a0907b529fa8e0a89e8964736f6c634300060c003354696d656c6f636b3a3a636f6e7374727563746f723a2044656c6179206d757374206e6f7420657863656564206d6178696d756d2064656c61792e54696d656c6f636b3a3a636f6e7374727563746f723a2044656c6179206d75737420657863656564206d696e696d756d2064656c61792e",
    "sourcePath": "/home/bartosz/workspace/CryptoWorkspace/dumplingswap/contracts/contracts/Timelock.sol",
    "compiler": {
        "name": "solc",
        "version": "0.6.12+commit.27d51765"
    },
    "functionHashes": {
        "GRACE_PERIOD()": "c1a287e2",
        "MAXIMUM_DELAY()": "7d645fab",
        "MINIMUM_DELAY()": "b1b43ae5",
        "acceptAdmin()": "0e18b681",
        "admin()": "f851a440",
        "admin_initialized()": "6fc1f57e",
        "cancelTransaction(address,uint256,string,bytes,uint256)": "591fcdfe",
        "delay()": "6a42b8f8",
        "executeTransaction(address,uint256,string,bytes,uint256)": "0825f38f",
        "pendingAdmin()": "26782247",
        "queueTransaction(address,uint256,string,bytes,uint256)": "3a66f901",
        "queuedTransactions(bytes32)": "f2b06537",
        "setDelay(uint256)": "e177246e",
        "setPendingAdmin(address)": "4dd18bf5"
    },
    "gasEstimates": {
        "creation": {
            "codeDepositCost": "1228000",
            "executionCost": "infinite",
            "totalCost": "infinite"
        },
        "external": {
            "GRACE_PERIOD()": "220",
            "MAXIMUM_DELAY()": "243",
            "MINIMUM_DELAY()": "265",
            "acceptAdmin()": "infinite",
            "admin()": "1125",
            "admin_initialized()": "1033",
            "cancelTransaction(address,uint256,string,bytes,uint256)": "infinite",
            "delay()": "1087",
            "executeTransaction(address,uint256,string,bytes,uint256)": "infinite",
            "pendingAdmin()": "1105",
            "queueTransaction(address,uint256,string,bytes,uint256)": "infinite",
            "queuedTransactions(bytes32)": "1184",
            "setDelay(uint256)": "infinite",
            "setPendingAdmin(address)": "infinite"
        },
        "internal": {
            "getBlockTimestamp()": "14"
        }
    }
}